:10100000004008206B11000039110000E1100000C1
:101010002911000019110000091100000000000052
:10102000000000000000000000000000D3AB000042
:10103000FB1000000000000041AC00007DAC00008F
:101040001D1200001D120000D12F00001D12000013
:101050001D120000DB9400001D1200009595000099
:10106000499600001D1200001D1200001D12000014
:10107000018B00001D1200001D1200001D12000057
:101080001D120000C57C00001D1200001D12000092
:101090001D1200001D1200001D1200001D12000094
:1010A0001D1200001D1200001D1200001D12000084
:1010B0001D120000ED7A00001D1200001D1200003C
:1010C0001D1200001D1200001D1200009C9D010059
:1010D00000C00720E0080000E0C80720AC0C0000BA
:1010E00004207146084203D0EFF3098009F0ACBE3A
:1010F000EFF3088009F0A8BE704708B5014800F07A
:101100001DF9FEE72B8C010008B5024800F016F926
:10111000FEE700BF3B8C010008B5024800F00EF965
:10112000FEE700BF488C010008B5024800F006F950
:10113000FEE700BF538C010008B5024800F0FEF83E
:10114000FEE700BF5E8C010010B5002302E01C58D2
:101150005C5004339342FAD310BD00231A4601E0D9
:101160001A5004338B42FBD3704738B5184C194DD5
:1011700004E094E807000C34FFF7E6FFAC42F8D334
:1011800005E094E803000834FFF7E7FF00E0124DA4
:10119000AC42F6D30DF0B2FA0AF07AF800F00CFF88
:1011A00001F09EFE044609F045FF81084FF4164009
:1011B0000AF000F9094800F0CBF8094800F0CEF831
:1011C0000848214600F0A2F807480DF01DFFFEE791
:1011D000CC100000D8100000E01000002DB400007A
:1011E0005BB40000D08C0100F38C010008B502480C
:1011F00000F0A4F8FEE700BF228D010008B5024808
:1012000000F09CF8FEE700BF2D8D010008B50248F4
:1012100000F094F8FEE700BF3C8D010008B50248DD
:1012200000F08CF8FEE700BF4C8D01000E4B02462B
:10123000196811B94FF08051196018688118196048
:101240000A4BCB180A498B429FBF0A4B0649D2185A
:101250001846054B98BF0A601968074A914284BF37
:101260001A600020704700BFE0C80720FF7FFFEF33
:10127000FE3F07108CD50720004008200DF076BAFD
:101280000DF074BA0DF07ABA0DF078BA30B58BB0B3
:10129000044668460DF050FE079A089BB2F5803F61
:1012A000A36088BF114B626084BFD31863600023C2
:1012B000E3600F4B0F4A1B680F4D93429CBFEB1826
:1012C000C3F18053256098BF03F580330AD90B4AD8
:1012D000934208D80A4DC5F1804505F58015EB1AF3
:1012E000002B00DDE36020460BB030BD00C0F8EFFE
:1012F000E0C80720008000108C150000FF3F082088
:101300008CD5072000207047FEE700BF0FB407B55B
:1013100004A951F8040B019110F060FBBDE80E40E8
:1013200004B070470EB403B503AA52F8041B01922F
:1013300010F082FBBDE80C4003B07047024A034B3B
:101340001A600AF07DB800BF2DB40000E4C8072081
:10135000014B1860704700BFE4C80720014B58607C
:10136000704700BFE4C8072000207047FEE7002058
:10137000704701207047F8B5074F0C463B6816468A
:101380002BB907E0605D3B689847013500E0002518
:10139000B542F7DB3046F8BDE4C80720F8B5094F81
:1013A0000C467868164630B9F8BD7B68002098472F
:1013B0006055013500E00025B542F6DB26EAE6700F
:1013C000F8BD00BFE4C80720704700207047002028
:1013D0007047002070470020704700BF38B50C46AA
:1013E00006F0EBFF0028054604DD09F05BFB28460C
:1013F00009F076F920464FF4806107F0FEF80949BC
:10140000094A0A4B204607F0A7F9204606F0D3FF09
:101410000546204606F0C1FC2818BDE8384009F012
:1014200083BB00BF576E0100766E01007B6E01002A
:1014300010B508460C464FF4007107F0DEF8204660
:1014400006F0B9FFBDE8104007F0AABA30B50C4667
:1014500093B04549054606F074FD002853D0434932
:10146000284606F055FD07281CBF2046404913D1E9
:101470000DAB00930EAB01930FAB029310AB039334
:1014800011AB049328463B490BAA0CAB06F0A6FC13
:10149000072804D03849204607F0DAF962E09DF8C1
:1014A00029300B9A09A862F303038DF829300C9AAE
:1014B0009DF8283062F304038DF828300D9ABDF8AA
:1014C0002A3062F30B03ADF82A300E9A9DF82630CD
:1014D00062F304038DF826300F9A9DF8253062F3ED
:1014E00005038DF82530109A9DF8243062F305032A
:1014F0008DF82430119A9DF8273062F302038DF89D
:10150000273007F037FE06AD284607F029FE95E89C
:10151000030009AB83E80300BDF82A109DF82920D9
:10152000C1F30B0189B200919DF826109DF8283077
:1015300001F01F0101919DF8251002F00F0201F04A
:101540003F0102919DF8241003F01F0301F03F01B9
:1015500003919DF82710204601F0070104910749E7
:1015600007F0FAF813B030BD816E01005679010022
:10157000856E0100B46E0100CD6E0100DB6E0100CE
:1015800070B596B0202206460BAC0D4603A800218C
:101590000DF084FC0021202220460DF07FFC304617
:1015A000194903AA234606F019FC022804D028464C
:1015B000164907F04DF925E0002313931493159372
:1015C00015AB009313AA03A8214614AB01F076FFD4
:1015D000024630B128460E4903AB009407F0BCF830
:1015E00010E0139A149B1599002A08BF0122002BC2
:1015F00008BF0123B1FBF2F2B1FBF3F32846054922
:1016000007F0AAF816B070BD016F01000B6F010062
:101610003C6F01005B6F010010B50C4606F0CBFE7D
:1016200004F031FD054B064A002814BF1146194647
:101630002046BDE8104007F00BB900BF0270010062
:101640000C70010070B50E46044606F0B4FE054667
:10165000204606F0B0FE04F0B6FC064A064B0749E9
:10166000002808BF134630462A46BDE8704007F000
:1016700073B800BF027001000C700100896F010097
:1016800030B5B3B0632205460C46684600210DF024
:1016900005FC0021632219A80DF000FC0C49284626
:1016A0006A4619AB06F09AFB02281CBF204609497E
:1016B0000AD119A9684604F0EBFD074B074A002838
:1016C00014BF11461946204607F0C2F833B030BDAA
:1016D000C06F0100CA6F01009A6F0100AE6F010078
:1016E00070B50C462949054606F0F7FD064628B1B7
:1016F00000F062FB002190F8340209E028462449FA
:1017000006F0EBFD70B100F033FB90F83402314687
:101710000A4604F049FE1F4B1F4A002814BF114619
:1017200019462AE028461D4906F0D7FD80B100F091
:1017300043FB054690F8340201F0F4FF30B9294626
:1017400095F8340203F050FF1549B0B1154914E083
:101750002846154906F0C1FD88B100F009FB054691
:1017600090F8340201F0DEFF30B9294695F83402D2
:1017700003F03AFF0D4900B10D49204601E00D4943
:101780002046BDE8704007F063B800BF63700100F9
:101790006D700100FB6F0100057001007A7001009F
:1017A0001270010022700100837001003970010085
:1017B000477001008F70010010B50C4600F04CFD21
:1017C00000210A460B46406808F069FA02492046A3
:1017D000BDE8104007F03CB8D87001002DE9F04199
:1017E000ADF5147D402205460C4663A800210DF09E
:1017F00055FB0021402273A80DF050FB00218022F0
:1018000023A80DF04BFB0021802243A80DF046FBDE
:101810002846364963AA73AB06F0E0FA022804D0E2
:101820002046334907F014F85BE083AD284673A9DE
:1018300004F08BFA20B9284663A904F086FA28B18F
:1018400020462C4963AA06F087FF4AE000F0DAFA46
:101850008CAB064603F1090403AB92932846802320
:101860008CA9939304F0A3FA00283AD19DF8393259
:10187000002B36D02FE063A923A80EF03BF923A854
:101880001D490DF0A7FF214623A80DF0A3FF73A962
:1018900043A80EF02FF943A817490DF09BFF2146EE
:1018A00043A80DF097FF43A94246434623A88C9FC7
:1018B000CDF8008001F002FE104B114A11490028BA
:1018C00014BF10461846019023AA304643AB009738
:1018D00008F08CF8C0E79DF8388218F01008BBD1EA
:1018E000C9E70DF5147DBDE8F08100BFEE70010081
:1018F000F87001003D7101005D710100027001008E
:101900000C7001005F7101002DE9F0410025CEB09F
:10191000064640220C462AA829464C950DF0BEFAF0
:101920004EAB43F8045D574930462AAA3AAD06F05B
:1019300055FA28462AA904F008FA28B12046524947
:101940002AAA06F009FF99E04D9B5A1E002B4D92E2
:1019500040F38780284643A904F029FA0028F3D0F1
:101960007FE00AAB49933AA8802343A94A9304F045
:101970001EFA00285ED19DF81531002B5AD09DF833
:101980001411CB0602D50135442205E04C9A439B45
:101990000136D3184C932D2211F0010F0CBF2D23CB
:1019A000522311F0020F0CBF4FF02D084FF04808E2
:1019B00011F0040F0CBF4FF02D0C4FF0530C11F031
:1019C000200FBDF810110CBF4FF02D0E4FF0410E3F
:1019D0008DE800514FEA612E0EF5F66EBDF812014A
:1019E0000EF10C0ECDF80CE0C1F3431E01F01F0107
:1019F0000591C11206914399C0F3451007900891D3
:101A000020462249CDF810E0099707F0EFFF204665
:101A10001F494FF0FF3207F09BFF0AA920464FF005
:101A2000FF3207F095FF20461A494FF0FF3207F0CA
:101A3000A0FF96E71849324620464C9B009507F0D8
:101A4000D5FF2AA84CA94BAA04F006FAB0B94B9BC3
:101A50004C9A9B7820465A431049520807F0C6FF1B
:101A60000CE000F0CFF90E492AAA0446002507F041
:101A7000BDFF43AB2E4603F1090772E74EB0BDE848
:101A8000F08100BF7E710100867101009F7101002D
:101A9000CC71010028720100D0710100FA710100BF
:101AA0000E7201002DE9F04FADF5866D81B08946CB
:101AB0003349054606F038FB324980F001082846D4
:101AC00006F05DFB2F49284606F07DFB284606F010
:101AD00072FC0DF58067043701460122384603F099
:101AE000BBFD5FFA88F8044640B1284606F063FC67
:101AF00025490246484606F02FFE3CE0214640F2CA
:101B0000014268460DF586660DF0C8F946F8044DA9
:101B100008F0C2FC834600F075F96D46824605E088
:101B2000504669464FF0FF3207F012FF38466946CB
:101B30004FF48062334603F07DFE40B9DDF82C346B
:101B40002BB1E418E854B8F1000FEFD0E8E73846BD
:101B500004F032F8B8F1000F0DD108F09DFCB0EBA5
:101B60000B0B08BF4FF0010BB4FBFBF348460749D2
:101B7000224606F0F1FD0DB00DF5806DBDE8F08F49
:101B8000297201005679010032720100467201008B
:101B90002DE9F04796B0884600F034F9064600F08B
:101BA000E7F8002416A900F50C7041F8044D053043
:101BB00014AA04F051F9254640B9149A159CD56928
:101BC0009378023D5C435D4364086D083B4B1B68A2
:101BD000B3B90820FFF752FB394B07461A689946FC
:101BE0003AB91C20FFF74AFB824606F07FFFC9F88E
:101BF00000A0D9F800303B6090233B712F4B1F6051
:101C00002E4B186801F087FB81460BF02FFD07462D
:101C10000BF012FB014648460BF058FA29490BF02D
:101C20005FFB0BF023FD814612A809F027FB182269
:101C300000210CA80DF032F90CA807F00FFB224B85
:101C40001A689A4622B90120FFF718FBCAF800006B
:101C5000DAF8000001F014FB0CAB03939DF84D3053
:101C60008DE8800203F00F0304939DF84C3002903E
:101C700003F01F030593BDF84E304046C3F30B033A
:101C80009BB206939DF84A30104903F01F03079357
:101C90009DF84930224603F03F0308939DF84830F1
:101CA00003F03F030993338B0A93738B0B932B46FB
:101CB00006F052FD16B0BDE8F08700BFF0C807205F
:101CC000F4C8072000002041F8C807206172010015
:101CD00008B500F097F84FF0FF32094907F049FEC8
:101CE00000F0A0F805F01CFD4FF4FA6008F0F8FCD5
:101CF0004FF08043AA221A7200221A7008BD00BF5A
:101D0000D772010073B50D461449044606F0E5FA92
:101D100050B100F087F805F003FD1149284602B0E4
:101D2000BDE8704006F094BD00F07CF80646204601
:101D300006F041FB9C23014600933046094A0A4BBA
:101D400005F03EFE204606F036FB084902462846CE
:101D500002B0BDE8704006F0FFBC00BFE8720100B1
:101D6000EE720100077301004C6E01002D7301003B
:101D700038B50F4C256815F0010516D1204609F03D
:101D800075FB90B14FF40E70FFF778FA302380F8AE
:101D900035323A2380F83632064B80F8345280F8D8
:101DA00037521860204609F081FB024B186838BD95
:101DB00000C9072004C9072038B5104C256815F064
:101DC000010517D1204609F051FB98B14FF40E7070
:101DD000FFF754FA012380F83432312380F835328A
:101DE0003A2380F83632064B80F837521860204686
:101DF00009F05CFB024B186838BD00BF0CC9072016
:101E000010C9072038B5064C236833B92020FFF7E6
:101E100035FA054607F038FB2560206838BD00BF5D
:101E2000FCC8072038B5064C236833B91420FFF7E7
:101E300025FA054605F081FC2560206838BD00BF05
:101E400008C9072001480DF0DFB800BF3A73010050
:101E500037B5054690F834020C4601F063FC0028C3
:101E600025D195F83402294603F0BEFBF8B902A942
:101E700005F50C7541F8040D6A46681D03F0ECFF8A
:101E8000A8B9009A0199D0699578023868436943E6
:101E900042084B08B2F57A7F38BF084802D3C20A1D
:101EA0000748CB0A2146FFF731FA01203EBD05481D
:101EB0002146FFF72BFA0020F8E700BF6573010009
:101EC00093730100C17301001FB50E4B04AC039363
:101ED0000D4931230D4804F8043DFFF717FA00229D
:101EE000094821461346009201F0E8FA30B1084B48
:101EF000084A042814BF1046184600E006480DF0B2
:101F000083F81FBD6C6F67000E740100F37301004E
:101F1000E9730100DC730100E373010038B5114C73
:101F200023681BB90120FFF7A9F92060206801F0A0
:101F300005FA044618B90C480DF066F800E00124D3
:101F40000A4D2B681BB90120FFF798F92860286813
:101F500001F018FA054618B905480DF055F82C4659
:101F6000204638BD18C90720127401001CC907207B
:101F70002E74010038B50224002500F05DF9E1B2AD
:101F800007F008F880B1B4F1380318BF0123402CE2
:101F90000CBF002303F0010333B1902C04D005489B
:101FA0002146FFF7B3F901250234B4F5807FE4D16F
:101FB000284638BD4774010070B5ADF5007DFFF7C8
:101FC00041FF01F00FFD02F069F908F089FE4FF4BE
:101FD000FA6006F0D5FC09F02DF8574BB0FBF3F191
:101FE00003FB11025548FFF791F909F041F9042864
:101FF0000DD1FFF727FF52480DF006F8514B52481C
:10200000D96C1A6D5B6DFFF781F9FFF71BFF07F0C5
:10201000D7F8022000F0B0F807F06AF900F00CF9E8
:10202000642106F02BFD10B948480CF0EDFF0A21A1
:10203000474805F083FD00F00FF901F06DFBFFF755
:1020400097FE4449FFF704FF0446C0B94248FFF732
:102050005DF9FFF78DFE2146224690F8340204F028
:10206000A3F93E4B3E4A002814BF104618460CF018
:10207000CBFFFFF77DFE3749FFF7EAFE0446394DF7
:102080002E6816F0010617D1284609F0EFF998B12D
:102090004FF40E70FFF7F2F8012380F83432312349
:1020A00080F835323A2380F836322F4B80F8376289
:1020B0001860284609F0FAF92B4B2C491868FFF7ED
:1020C000C7FE14B108B1FFF7FFFE182007F0F2F8C1
:1020D000FFF7B8FEFFF74EFF08B1FFF7B3FEFFF7BB
:1020E0001DFF08B9FFF7AEFE6846214D06F058FC0B
:1020F00068460CF089FFFFF7A5FE2B684BB9082056
:10210000FFF7BCF8044600F097F8402320602371E5
:102110002C60174B1C6808F08DFF074BB0FBF3F1E8
:10212000C9B2204601F006F812480CF06DFFFFF727
:1021300089FE0DF5007D70BD40420F006F740100F7
:102140008974010000400240B6740100DD74010092
:10215000AD41000011750100197501006A7401009C
:10216000417401000CC9072010C90720317001001B
:1021700014C907204275010008B52B4B4FF400111C
:10218000D3F8C42042F48052C3F8C420274A116017
:10219000D3F8A82122F04072C3F8A82107282FD82D
:1021A000DFE800F004090F14191E2429204B5A6897
:1021B00042F4804203E01E4B5A6842F480325A6077
:1021C0001EE01B4B5A6842F48022F8E7184B5A680D
:1021D00042F48012F3E7164BDA6842F0405203E013
:1021E000134BDA6842F04042DA6009E0104B1A689B
:1021F00042F0800203E00E4B1A6842F020021A609F
:1022000008F018FF0B4A80080023B0FBF3F191425D
:1022100005D8064A116841EA0323136008BD02335A
:10222000B3F5807FF1D108BD00C00F4000400340EE
:1022300000C00240FF1AB70038B5064C236833B916
:102240001C20FFF71BF8054606F050FC25602068AF
:1022500038BD00BFF4C8072070B50F4C2568BDB964
:102260001C200CF083FA06462060012007F089FD4F
:102270002946306003220120266807F0E3FC23682A
:102280007060586820B129462A462B4607F007FDA2
:10229000014B186870BD00BF20C907200000000076
:1022A000012070470120704708B564234361FFF7A0
:1022B000D3FF00210A460B46406807F0B5FD003009
:1022C00018BF012008BD37B500F1340500242846A9
:1022D0003C493D4A3D4B0094019405F00FF82846D7
:1022E0003B493C4A3C4B0094019405F007F82846D2
:1022F0003A493B4A3B4B0094019404F0FFFF2846C7
:1023000039493A4A3A4B0094019404F0F7FF2846C1
:102310003849394A394B0094019404F0EFFF2846BC
:102320003749384A384B0094019404F0E7FF2846B7
:102330003649374A374B0094019404F0DFFF2846B2
:102340003549364A364B0094019404F0D7FF2846AD
:102350003449354A354B0094019404F0CFFF2846A8
:102360003349344A344B0094019404F0C7FF2846A3
:102370003249334A334B0094019404F0BFFF28469E
:102380003149324A324B0094019404F0B7FF284699
:102390003049314A314B0094019404F0AFFF284694
:1023A0002F49304A304B0094019404F0A7FF28468F
:1023B0002E492F4A2F4B0094019404F09FFF0120D7
:1023C0003EBD00BFDD130000748A0100D07501001E
:1023D00031140000077601000F760100911B000008
:1023E0002D7601001F7601004D1400007576010066
:1023F00034760100A51A00007A7601007E7601008D
:10240000811500001D770100DA760100DD1700005C
:102410001C77010020770100091900006B7701008B
:102420006E770100191600009C770100A277010069
:1024300081160000C7770100CA7701004516000029
:10244000F7770100FA770100E11600001D7801001E
:1024500025780100D11C0000687801006F78010028
:10246000051D00000E74010082780100B9170000FC
:10247000B8780100BE780100F7B5022300251A499B
:102480004FF480520446009505F0D6F8174BA58509
:1024900023600423E5852563A563E5632564284659
:1024A000636348210CF0B8FDE56B2064AE000BE0DF
:1024B0001420FEF7E3FE0021142207460CF0EEFC88
:1024C000236C01359F510436112DF1D91223A363DA
:1024D00004F158004FF4806106F082F8012384F87B
:1024E0006C302046FEBD00BFE6780100A0750100FB
:1024F00070470120704737B5022300250A494FF481
:1025000080620446009505F097F8084B65652360E6
:10251000012384F8583004F12C00294628220CF0BD
:10252000BDFC20463EBD00BF077A0100807501005A
:1025300010B50023C46A8C4202D11360012010BD83
:10254000013304300A2BF5D1002010BD37B500232C
:1025500002AC054644F8043DE86821464FF0FF32DE
:10256000002307F061FC10B906480CF04DFD0198FE
:102570000AF010FA042200F009FB01990248FEF764
:10258000C5FEE9E7EF7801001F79010037B50023A8
:1025900002AC054644F8043DE86821464FF0FF329E
:1025A000002307F041FC10B906480CF02DFD0198FE
:1025B0000AF0F0F9042200F073FA03480CF024FD4D
:1025C000EAE700BFEF780100427901002DE9F74307
:1025D00004468846FFF716FC02AE00232F4D07463F
:1025E00006F8013D4FF007093B6838461B68314645
:1025F0004EF660229847002846D1204605F0CDFBD4
:1026000000283FD040E0204605F0C7FB0028D8BF97
:102610008DF807900ADD2248FEF778FE204601215A
:1026200005F03DFD02E0204605F0A0FF28689DF87A
:10263000071082689368013B002B936011DAD2F88F
:1026400018C063450ADB136819702868826813682C
:1026500019780A2902D00133136009E00FF0A6FAB5
:1026600006E0136819702B689B681A6801321A60BB
:102670009DF807300A2B04D0204605F08EFB40451C
:10268000B2DB0120BDE8FE839DF807100A29CDD0FA
:102690000D29CBD00829C6D1B5E700BF18C0072047
:1026A0005579010070B5A6B001A98022044621A881
:1026B00005F04EFB1B48FEF729FE21A805F070FB34
:1026C000014621A8FFF782FF18B917480CF09CFCBF
:1026D00022E021A805F061FB00281DDD07F0DCFEEB
:1026E0000546C8B1A38D0133A385FFF78BFB0646D2
:1026F00021A805F060FE014604F1340004F0D4FD89
:102700004FF0FF320146304607F033F907F0C4FEC0
:10271000411B0648FEF7FAFD21A805F02CFB01201D
:1027200026B070BD58790100287201005E79010061
:1027300038B50446FFF766FB20224FF400734FF4D0
:10274000164106F079FE05460748FEF707FE0748E2
:10275000FEF7FEFD064904F1340004F0A5FD0CF07F
:1027600053FC284638BD00BFBB940000A594000070
:102770007479010008B500F065F900F0F6FC01205D
:1027800008BD2DE9FF4D002304AC064644F8043D86
:10279000B3274FF00108042000F05CFB05460398C6
:1027A0000AF0F8F800221C4B82468B460AF0CAFB5E
:1027B00010B1CDF80C8008E05046594614A3D3E977
:1027C00000230AF0DDFB00B10397039B053B012DBD
:1027D00003D0022D02D1039B05330393642007F03D
:1027E0007FFFF06821464FF0FF32002307F057FAD1
:1027F00048B9FFF717FB4FF4E87300930749084AFD
:10280000084B05F040F9642007F06AFFC3E700BFFA
:1028100000000000006066400000F03F7979010090
:10282000B0790100B8750100F0B599B0002502A992
:102830004022044612A8179505F08AFAFFF70CFD0E
:10284000294640682A462B4607F0EEFA70B100F0A0
:10285000F9F82D2100F05EFC00F0F4F82D2100F0D5
:1028600061FC4A480CF0D0FB84F8585000F00AF99B
:1028700000F03CFC002800F0818094F85850012DB5
:1028800030D002D3022D6DD14BE02646002502E068
:10289000642007F025FF00F0F5F800F027FC002881
:1028A000F6D000F0EFF800F02BFC07462A46384936
:1028B0003B4612A805F050FF12A805F07CFD0CF075
:1028C000A3FBF76200F0BEF8E9B2013500F032FC7C
:1028D00004360A2DDFD12F4801250CF095FB84F832
:1028E00058504CE000F0CEF800F00AFC17AA014660
:1028F0002046FFF71DFE002841D000F0A3F81799ED
:102900003031C9B200F006FC00F09CF82D2100F037
:1029100009FC179B0A2253436365022384F858304D
:102920002DE000F0AFF800F0EBFB17AA01462046BF
:10293000FFF7FEFD10B3626D179B0125D318636589
:1029400000F080F817993031C9B200F0EBFB84F841
:10295000585040F6B83007F0C3FE00F093F800F08E
:10296000CFFB0CE0FFF75EFA40F23F1300930A49F9
:102970000A4A0B4B05F087F8002500E0012512A854
:1029800005F0F9F9284619B0F0BD00BFD379010070
:102990000E7A0100207A0100357A0100B079010039
:1029A000C9750100AFF30080014B0360704700BFA1
:1029B00060750100012070470120704701207047B9
:1029C000014B0360704700BF60750100034B10B5F9
:1029D00004460360FEF756FC204610BD60750100FA
:1029E000034B10B504460360FEF74CFC204610BDB7
:1029F0006075010038B50C4B044640F8583B05F0B3
:102A0000BAF9002504E050F82500FEF73BFC01353B
:102A1000A36B206C9D42F6D308B1FEF735FC034B47
:102A20002046236038BD00BFA0750100607501001D
:102A300010B50446FFF7DEFF2046FEF723FC2046D4
:102A400010BD00000D4B70B51B689BB90820FEF748
:102A500015FC0B4D04462B6833B91C20FEF70EFC09
:102A6000064606F043F82E602B682360402323714E
:102A7000024B1C60014B186870BD00BF14C90720D1
:102A8000F4C8072010B5044C23681BB90120FEF7D9
:102A9000F5FB2060206810BD24C90720000000005D
:102AA000F8B517460023002204460D460AF04AFAFC
:102AB000002832D12046294619A3D3E900230AF081
:102AC0005FFA002829D11E4B20469E69294616A38D
:102AD000D3E900230AF0EEF815A3D3E9002309F0A7
:102AE000BFFF15A3D3E9002309F008FE0022154B10
:102AF0000AF0E0F8044630460D4609F03BFF024676
:102B00000B462046294609F0ABFF0AF043FA01467E
:102B10003846BDE8F84006F0CBBAF8BDAFF3008008
:102B2000000000000040654000000000008066409A
:102B3000CDCCCCCCCCCC08409A9999999999C93FE5
:102B4000008001400000344038B50DA5D5E90045AE
:102B50000D4BC820DA6842F40042DA6006F068FAE9
:102B6000012006F04BFA204629460422FFF798FF81
:102B7000204629460522BDE8384091E7AFF30080A2
:102B8000000000000080564000C00240F8B5174623
:102B90000023002204460D460AF0D4F9002832D161
:102BA0002046294618A3D3E900230AF0E9F90028B2
:102BB00029D11D4B20469E69294615A3D3E9002340
:102BC0000AF078F814A3D3E9002309F049FF14A30D
:102BD000D3E9002309F092FD0022144B0AF06AF8B1
:102BE000044630460D4609F0C5FE02460B46204617
:102BF000294609F035FF0AF0CDF901463846BDE80F
:102C0000F84006F055BAF8BD0000000000406540ED
:102C10000000000000806640CDCCCCCCCCCC08407D
:102C20009A9999999999C93F0080014000003440D0
:102C300008B506F05DFB054BDA6822F0C002DA60E9
:102C4000034B9A7842F008029A7008BD00C0024017
:102C500020C00920024BDA6942F00802DA617047AD
:102C600020C00920024B9A6942F008029A6170471D
:102C700020C0092040F4207001F00F0110B541EA96
:102C80000014FFF7E7FFA300084ADBB29360D168A6
:102C9000064B11F01001FAD198689960D368DB06F1
:102CA000FCD4024B9B68BDE81040DBE7000003400A
:102CB00010B50024E0B200210134FFF7DBFF602CE7
:102CC000F8D110BD082370B591FBF3F590FBF3F339
:102CD000DEB21D4B98B00B40002BEDB203DA013B86
:102CE00063F007030133D9B2174B0340002B03DA1B
:102CF000013B63F0070301339B000329DCB201D9D8
:102D00000134E4B2730003EB4510001900F0FF003A
:102D100072B1C943012301F0030113FA01F19A4290
:102D2000C9B206D118AA131813F8603C194306E07B
:102D3000114618AA131813F8603C23EA010118B0D1
:102D4000BDE8704096E700BF0700008008B5FFF7B8
:102D500081FFBDE8084085E708B5FFF77BFFFFF777
:102D600081FFFFF777FFFFF77DFFFFF773FFFFF7A7
:102D700079FFFFF76FFFFFF775FFFFF76BFFFFF7B7
:102D800071FFFFF767FFFFF76DFFFFF763FFFFF7C7
:102D900069FF012008BD00BF38B500F081F80005CB
:102DA000B423000D584309F0E5FD00220E4B09F055
:102DB00057FE04460D4622462B4609A1D1E90001E3
:102DC00009F09AFC02460B460848FEF79FFA204697
:102DD00029460AF007F980B238BD00BFAFF3008082
:102DE000000000603E10D0410000303F497A0100F1
:102DF00008B500F055F800055A23000D584309F0B6
:102E0000B9FD0022002309F079FC0022034B09F0F0
:102E100027FE0AF0E7F880B208BD00BF0000303F8F
:102E200008B500F03DF80005000D09F0B3FD0022E3
:102E3000074B09F015FE04A3D3E9002309F010FEA7
:102E400008BD00BFAFF300800000000000806640B6
:102E50000000303F10B500F023F80005000D09F028
:102E600099FD00220B4B09F0FBFD00220A4B09F0F3
:102E7000F7FD0AF0B7F8044621460848FEF746FA7F
:102E8000502C04D96D2C8CBF0220002010BD0120D5
:102E900010BD00BF0000303F00006940557A0100BE
:102EA000072816D80C4B0D4A19680A40012111FA5F
:102EB00000F01A601A68104318601A6842F08072B5
:102EC0001A605A68002AFCDA034B5868C0F30B10EA
:102ED00070470020704700BF0040034000FFFFF82C
:102EE00030B501208DB00022014606F0ABFE079000
:102EF00001200022014606F0A5FE00224FF40071D9
:102F00000890012006F09EFE09900420FFF734F996
:102F10000520FFF731F9FFF717FEFFF789FE11488B
:102F20000CF072F80AAB0024012501930E4905ABA1
:102F30004FF440720D4800950294039407F02EF967
:102F40000BAB01930A494FF4407205AB0948009559
:102F50000294039407F022F907F060FA4FF0FF3073
:102F60000DB030BD677A0100757A0100832700003B
:102F7000827A01004D25000010B52A21044619224D
:102F800000F07EFA0D222179206806F010F8A0F1F9
:102F90001A03584240EB030010BD08B5012100F0B0
:102FA00079FA102300B290FBF3F008BD08B50321B5
:102FB00000F070FA102300B290FBF3F008BD08B5E2
:102FC000052100F067FA102300B290FBF3F008BD72
:102FD00070B525490A680B4612F010020FD08A68B6
:102FE000C8328A61214A11881F2905D8DC6A02EBA0
:102FF000810001314460118010221A6070BD0B689D
:10300000D9072FD5194B1888012825D9043319461B
:10301000013807E051F8045F53F8044C01322C1BCF
:1030200043F8044C04338242F4DB104901248B68DA
:1030300003EB530500231A4609E001EB830676688B
:10304000AE4202D914FA03F6324301339BB28342F3
:10305000F3DB064BC3F88420044B00221A80024B9A
:1030600001221A6070BD00BF0080004028C90720FF
:1030700070B51A4B1A4CD3F8C420012542F0020255
:10308000C3F8C420D3F8A821002622F03002C3F8E8
:10309000A821D3F8A82142F01002C3F8A821656046
:1030A000266707F0C7FF42F21073B0FBF3F0E06051
:1030B000A36A284623F00703A362A36A43F006032A
:1030C000A362A66163692B436361064BDA6842F031
:1030D0003002DA60044B04221A6070BD00C00F4059
:1030E0000080004000C0024000E100E0034BD3F844
:1030F0008400003018BF0120704700BF28C9072096
:10310000034B0022D3F88400C3F88420704700BF2B
:1031100028C90720024B41715A5C032100F0B0B965
:10312000917A0100024B81715A5C022100F0A8B92A
:10313000917A0100642370B5B1FBF3F503FB15151B
:103140000A21EDB2B5FBF1F601FB16513031C9B2DF
:103150000446FFF7E7FF2021092D204602D930362B
:10316000F1B22046BDE87040D4E710B520210446F6
:10317000FFF7D0FF20462021BDE81040D2E738B548
:1031800004460179006805F005FF051C18BF0125FC
:103190008DB120460621002200F072F92046072159
:1031A000002200F06DF920462E21FFF7B3FF2046E4
:1031B0002E21FFF7B7FF284638BD044A4CF213739F
:1031C000116801200B431360704700BF20C0092025
:1031D000184B4CF213720170DA61CA0701D5012253
:1031E0009A61880701D502229A614A0702D5114BDC
:1031F00010229A610B0742BF0E4B4FF480729A6106
:10320000C80642BF0B4B4FF400729A618A0642BF58
:10321000084B4FF480629A614B0642BF054B4FF456
:1032200080429A61080642BF024B4FF400429A6105
:10323000704700BF20C009200123013913FA01F1B2
:10324000037823EA01010170C2E70123013913FA6F
:1032500001F103781943C9B20170B9E708B5074B0A
:1032600002205A6822F440225A605A6842F48022AE
:103270005A60FEF781FF012008BD00BF00C0024078
:103280000220FFF70DBE08B50220FFF709FE6423F8
:103290005843C0F30F3008BD024B00221A700120C2
:1032A000704700BF40C00920014B187D704700BF28
:1032B00040C00920034B0139187D084100F001008E
:1032C000704700BF40C0092010B50121044681228B
:1032D00000F0D6F801222179206805F068FE10F090
:1032E000600F0CBF0020012010BD38B5002105463D
:1032F00000F0D0F80121812284B2284600F0C0F805
:1033000024B2102394FBF3F009F096FF4FF07651AE
:1033100009F0E6FF38BD08B5FFF7E7FF054909F0FA
:10332000DFFF05490AF090F84FF0844109F0D0FE24
:1033300008BD00BF000010410000A040042008B5F7
:10334000FEF71AFF012008BD0420FFF7A9BD08B54C
:103350000420FFF7A5FD0005000D08BD08B50420F9
:10336000FFF79EFD00056423000D584309F002FBA2
:103370000022034B09F074FB09F034FE80B208BD53
:103380000000303F08B506480BF03EFE054BC82054
:10339000DA6842F40042DA6005F04AFE012008BD16
:1033A000907B010000C0024038B501200C4605F0BA
:1033B00025FE20460D490AF04FF9A8B90C4B0B49E0
:1033C00020469D690AF040F80446284609F030FF7F
:1033D0000146204609F084FF0AF048F9014604201E
:1033E000BDE8384005F064BE38BD00BF0000A04114
:1033F0000080014038B501200D4605F0FFFD1C4B53
:1034000028461C499C690AF01FF809F0D5FA14A354
:10341000D3E9002309F024FB13A3D3E9002309F027
:103420006DF909F0FFFD054609F0C6FA02460B46A4
:103430001148FDF76BFF114928460AF005F80546CB
:10344000204609F0F5FE0146284609F049FF0AF03A
:103450000DF901460420BDE8384005F029BE00BF43
:10346000CDCCCCCCCCCCFC3F666666666666E63FCF
:103470000080014000003443A37B01000000A04114
:1034800010B50C460179006813462246BDE810408D
:1034900005F0B3BC1FB50A4604AB0021022423F893
:1034A000041D01790094006805F0FAFC9DF80C00F9
:1034B0009DF80D3043EA002004B010BD2DE9F04F17
:1034C000ADF5177D05460DF500780C4617464046CC
:1034D000294601229A4602F0BFF88346002835D1DA
:1034E0000DF50A79214648460A2202F0B5F88346CE
:1034F00004464046BBF1000F26D1CDF850B2CDF8BE
:1035000054B25D465E4606F0C7FF694680464FF4FA
:10351000007280A894AB02F08DF9834630B9949B79
:1035200023B118E0949B959A9A4226D007B13E6049
:10353000BAF1000F01D0CAF80050A09B03B11C6083
:1035400080A802F039FB8AA802F036FB58460DF538
:10355000177DBDE8F08F06F09FFFC8EB000806F06E
:103560009BFF464469468046949A484695AB02F0D4
:1035700017FA83460028D9D1D4E706F08DFF949B33
:10358000C8EB00084544E418BDE7F0B507468DB028
:103590000D46144639461E4601A8002301220B930E
:1035A00002F05AF8074670B91EB101A8314602F080
:1035B00033FB01A8294622460BAB02F03BF9074634
:1035C00001A802F0F9FA38460DB0F0BDF0B5074693
:1035D0008DB00D46144639461E4601A800230A2226
:1035E0000B9302F039F8074670B91EB101A83146B5
:1035F00002F012FB01A8294622460BAB02F0D0F9DB
:10360000074601A802F0D8FA38460DB0F0BDF0B573
:1036100007468DB00D46144639461E4601A80023C4
:1036200012220B9302F018F8074678B901A8314628
:1036300006B9049902F0F0FA01A8294622460BAB1C
:1036400002F0AEF9074601A802F0B6FA38460DB00E
:10365000F0BD00007F2815D90B4B31B1FF2810D8E1
:103660000A4B803833F81000704733F8022F82423B
:1036700003D0013189B28029F7D101F18000C0B2B5
:1036800070470020704700BFB27B0100B47B01008F
:10369000074A002300E0013332F8021F31B18842AB
:1036A000F9D1044A02EB4303B3F8E002704700BFCC
:1036B000B27C0100B47B010010B501200C4606F07D
:1036C00060FB2060003018BF012010BD0120704752
:1036D00010B5044607F07CF901280CD100210B46F7
:1036E000204640F6B83206F09FFBA0F10103584295
:1036F00040EB030010BD012010BD10B5044607F0DB
:1037000067F9012807D1002120460A460B46BDE88B
:10371000104006F0C4BA10BD014B1860704700BFDE
:1037200010CA0720F8B5064607F052F9A0F10103C8
:103730005D4245EB030501204DB1154B00211B688F
:103740004FF0FF3218680B4606F06EFBC0B204243F
:103750000F4F18E01EB10424012E06D102E000F044
:10376000AFFD01E000F08AFA0446284655B13B68F7
:10377000002118680A460B4606F091FAD0F10100C4
:1037800038BF0020C0B20028E4D12046F8BD00BFF9
:1037900010CA0720F8B5064607F01AF9A0F1010291
:1037A000554245EB020501204DB1134B00211B682A
:1037B0004FF0FF3218680B4606F036FBC0B2042407
:1037C0000D4F15E034462EB10424012E02D100F035
:1037D00003FB0446284655B13B68002118680A4699
:1037E0000B4606F05CFAD0F1010038BF0020C0B2F1
:1037F0000028E7D12046F8BD10CA07202DE9F04780
:103800008846814616461F4607F0E2F8A0F10101FE
:103810004D4245EB010501204DB11B4B00211B68BA
:103820004FF0FF3218680B4606F0FEFAC0B20424CF
:10383000DFF854A022E0B9F1000F04D00424B9F15C
:10384000010F0CD105E0404631463A4600F072FDCA
:1038500004E0404631463A4600F0C4FA04462846A1
:103860005DB1DAF80030002118680A460B4606F010
:1038700016FAD0F1010038BF0020C0B20028DAD11A
:103880002046BDE8F08700BF10CA07202DE9F047A9
:103890008246894690461F4607F09AF8A0F101003B
:1038A000464246EB000601204EB11B4B00211B682F
:1038B0004FF0FF3218680B4606F0B6FAC0B2042487
:1038C000154D24E0BAF1000F04D00424BAF1010F21
:1038D0000FD108E06B684846013341463A466B60B9
:1038E00000F068FD04E0484641463A4600F0CCFA54
:1038F0000446304656B12B68002118680A460B462C
:1039000006F0CDF9D0F1010038BF0020C0B2002888
:10391000D8D12046BDE8F08710CA07202DE9F8432A
:1039200080460E46174607F053F8A0F101046542A1
:1039300045EB040501204DB1194B00211B684FF0E8
:10394000FF3218680B4606F06FFAC0B20424DFF8A5
:10395000509020E0B8F1000F04D00424B8F1010F1A
:103960000AD104E03046394600F049FD03E0304614
:10397000394600F0EBFA044628465DB1D9F800302C
:10398000002118680A460B4606F089F9D0F10100BB
:1039900038BF0020C0B20028DCD12046BDE8F88343
:1039A00010CA07200D4B322230B51A700C4BFF2283
:1039B0009A60D9680A4ACC06FBD408499368FF2468
:1039C00013469460D868C006FCD49868C0B2FF283B
:1039D00002D00D78002DF4D130BD00BF86D5072070
:1039E000000003400E4A536823F4405353600D4BCC
:1039F000196841F4800119604FF4800199611168E0
:103A000021F440511160516821F0406151601A6801
:103A100022F040021A601A6822F000521A607047C1
:103A200000C0024000C00920704738B50A4C4FF46E
:103A30008005E561FFF7B6FF084BFF22A5619A609C
:103A4000DA68D206FCD4054B9B68054B1A7842F025
:103A500001021A7038BD00BF00C0092000000340F9
:103A600000C00720034B5B6913F0005F14BF002008
:103A70000120704700C00920F8B5284B284D0A22C4
:103A80001A70FF272C461E46AF60E26812F0100243
:103A9000FBD1A368DBB2FF2B04D13278002AF3D12B
:103AA0001046F8BDFE2B37D1102904D94FF4007110
:103AB00005F05EFC1EE01A4AFF241346154694608A
:103AC000DE68F606FCD49E6806709C60D668F60632
:103AD000FCD49E6846709C60EE68F606FCD49E6836
:103AE00086709C60D668F606FCD49E68C67004306A
:103AF0000439E4D10A4BFF229A601A46D168084B78
:103B0000C806FBD49A68FF229A60DA68D106FCD412
:103B1000034B01209B68F8BD1046F8BD84D50720F3
:103B20000000034070B505460E46FFF73BFFFF2837
:103B30002FD1194B9E60DA68174CD006FBD4FD2EAE
:103B4000A36824D028464FF40071FF2205F010FC32
:103B5000FF23A360E368104A13F0100FFAD19368B3
:103B6000FF239360D1680C4BC906FBD49A68FF22EF
:103B70009A60DA68D206FCD4074B986800F01F0000
:103B8000A0F1050CDCF1000040EB0C0070BD012041
:103B900070BD002070BD00BF0000034038B50306B3
:103BA00004460D4607D577200021FFF7F7FF0128CF
:103BB0005ED804F07F042F4B4FF480029A61DA61E3
:103BC000FFF7F0FEFF2852D12B4B9C601A46D168BC
:103BD000294BC806FBD49A682A0E9A60DA6812F05C
:103BE000100F254AFAD19368C5F307439360D16853
:103BF000214BC906FBD49A68C5F307229A601A467E
:103C0000D36813F0100F1C4BFAD1EDB29A689D6087
:103C1000DA68D006FCD4184B9522402C9B6803D060
:103C2000482C0CBF87220122134B9A601A46D16898
:103C3000114BC906FBD44C2C9A6806D1FF229A601E
:103C4000DA68D406FCD40C4B9B680B490A23FF248A
:103C50000A468C60D068C006FCD49068C0B210F0F0
:103C6000800F05D0013BDBB2002BF2D138BDFF2025
:103C700038BD00BF00C009200000034073B5514BA0
:103C80001A78920700F19B80012005F013FB4E4A41
:103C90000A24FF2113469160D868C006FCD4013C79
:103CA000E4B29868002CF6D1484B4FF480024020D3
:103CB000DA612146FFF772FF012865D1444D642384
:103CC00048202B704FF4D571FFF768FF012840D1D1
:103CD0003D492346FF200A468860D46814F010044A
:103CE000FBD1966801AD5E550133042BF4D19DF8EC
:103CF0000630012B48D19DF80730AA2B44D1344C13
:103D0000237833B1E9204FF08041FFF747FF0028C7
:103D1000F6D12F4B1C78002C36D07A200021FFF7EB
:103D20003DFF002400282FD1274AFF211346916030
:103D3000DC68E406FCD49D6801AC0555013004281C
:103D4000F5D19DF8043013F0400F0CBF04240C246F
:103D50001AE0E9202146FFF721FF01288CBF01244A
:103D600002248CBF4126E9262B782BB13046002156
:103D7000FFF714FF0028F7D1154B1B7823B1502013
:103D80004FF40071FFF70AFF124B4FF480021C70D2
:103D90000E4B9A610C4BFF229A60DA68D206FCD473
:103DA000094B9B6844B1074B18201A7802F0FE02B9
:103DB0001A7005F07FFA01E0FFF737FE014B187823
:103DC0007CBD00BF00C007200000034000C00920E8
:103DD00084D5072085D50720014B1878704700BF90
:103DE00000C0072038B504461546002A40D0224BB3
:103DF0001B78DB073ED4214B4FF48002DA61204B65
:103E00001B78180758BF4902012D0DD15120FFF72B
:103E1000C5FEE8B920464FF40071FFF72DFED0F142
:103E2000010538BF002513E05220FFF7B7FE78B92F
:103E300020464FF40071FFF71FFE28B1013DEDB29F
:103E400004F50074002DF3D14C200021FFF7A6FEED
:103E50000A4B4FF480029A610A4BFF229A60DA689B
:103E6000D106FCD4074B281C9B6818BF012038BD25
:103E7000042038BD032038BD00C0072000C0092041
:103E800085D507200000034070B505460C46164650
:103E9000002A4DD0294B1A78D2074BD41B785807EB
:103EA0004AD4274B4FF48002DA61264B1B7819075E
:103EB00058BF6402012E0DD158202146FFF76EFE37
:103EC00030BBFE212846FFF72DFED0F1010638BF9A
:103ED00000261DE013F0060F03D0D7203146FFF770
:103EE0005DFE59202146FFF759FE88B92846FC217E
:103EF000FFF718FE28B1013EF6B205F50075002E59
:103F0000F4D10020FD21FFF70DFE002808BF012697
:103F10000B4B4FF480029A610B4BFF229A60DA68D8
:103F2000D206FCD4084B301C9B6818BF012070BD22
:103F3000042070BD032070BD022070BD00C00720AA
:103F400000C0092085D5072000000340F0B50528F2
:103F500085B00C4616D10B78012B0DD004D3042567
:103F6000022B40F0188109E0FFF77CFD0546002890
:103F700000F01181FFF759FD00250CE1FFF772FDFC
:103F80006070F9E7854B1B78DD0700F103810E288F
:103F900000F2F080DFE810F00F001A005500590021
:103FA000EE00EE00EE00EE00EE00EE00B500BA000E
:103FB000BC00C500D8007A4B4FF48002DA61FFF7ED
:103FC000F1FCB0F1FF0518BF0125D6E04920002122
:103FD000FFF7E4FD0546002840F0CE80684610213A
:103FE000FFF74AFD002800F0C7809DF800309B09CC
:103FF000012B9DF8083007D19DF80920013202EB12
:1040000003239BB29B024CE09DF807209DF805100E
:10401000920002EB93135A1C9DF8063001F00F0139
:1040200003F0030302EB83239DF80A2001EBD21176
:104030009DF8092002F0030201EB4202073A934087
:104040002FE04FF400730B805EE0564D297811F09D
:10405000040128D0CD200021FFF7A0FD002840F06A
:104060008B80514BFF229A60DA684F4FD006FBD409
:1040700068461021BB68FFF7FFFC00287CD0302584
:10408000FF223B46BA60D968C906FCD4013DEDB2B7
:104090009968002DF6D19DF80A3010221B0912FAFA
:1040A00003F3236069E04920FFF778FD0646002806
:1040B00062D168461021FFF7DFFC00285CD02D7824
:1040C0009DF80A2015F002059DF80B300DD09DF8E3
:1040D0000D1002F03F02DB0903EB420389090133B3
:1040E00001398B403546236047E0C2F38402511CFE
:1040F00003F003025B0903EBC20201324A43226070
:104100003BE0284B1B780B70002536E0492000E08F
:104110004A200021FFF742FD00282DD12046102122
:1041200021E07A200021FFF739FD28BB1E4AFF213C
:1041300013469160DD6815F01005FBD19E6826548A
:1041400001300428F5D118E0CD200021FFF726FD2D
:1041500090B9154BFF229A60DA68D006FCD4124B56
:1041600020469B684021FFF787FCD0F1010538BF4E
:10417000002502E0042500E00125094B4FF48002F0
:104180009A61094BFF229A60DA68D106FCD4064B8B
:104190009B6800E00325284605B0F0BD00C007205D
:1041A00000C0092085D5072000000340124B1A7873
:1041B00012B1013AD2B21A70104B1A7812B1013A08
:1041C000D2B21A700E4B0F4A1978526902F04002AF
:1041D000D2B21A701A7891420DD10B490A781B7825
:1041E0005B064CBF42F0040302F0FB03044A03F0F9
:1041F000FD0312780B70704784D5072086D5072001
:1042000018CA072000C0092000C00720044B98608E
:10421000DA68D206FCD4024B9868C0B2704700BF7F
:104220000000034010B5094C4FF48033A361D72040
:10423000A361E361FFF7EAFFFF20FFF7E7FF010655
:10424000FAD54FF48033A36110BD00BF00C0092030
:104250002DE9F843104D4FF480360F4690469946AD
:104260000446FFF7DFFFAE618220AE61EE61FFF72B
:10427000CDFF4846FFF7CAFF4046FFF7C7FF384665
:10428000FFF7C4FF20464FF48071012205F070F85B
:10429000AE61BDE8F88300BF00C00920064B5A6834
:1042A00022F003025A60054B1A6842F480321A6009
:1042B0004FF480329A61704700C0024000C009206C
:1042C00070B51A4C4FF48035FFF7ACFFA561D720CD
:1042D000A561E561FFF79AFFFF20FFF797FFA56152
:1042E0000646A5619F20A561E561FFF78FFFFF20CE
:1042F000FFF78CFFF307A56113D4A5613D20A561ED
:10430000E561FFF783FF2A20FFF780FF8020FFF79A
:104310007DFFA620FFF77AFFA56105480AF074FE2D
:10432000FEE71F3818BF012070BD00BF00C0092084
:104330007480010070B54C0205461646FFF772FF07
:104340001A4B4FF480329A619A61DA61184BC4F3C8
:104350000722C4F30741D2B2E8209860E4B2996022
:104360009A60FF229C609A609A609A609A60DC680A
:104370000F4A14F01004FAD1936893689368936815
:10438000936893689368936808E028464FF4007137
:10439000002204F0EDFF05F500750134B442F4DBB2
:1043A000024B4FF480329A61002070BD00C009209A
:1043B000000003402DE9F041054690464C020026DE
:1043C00018E0E1B2C4F30722C4F3074328462746A6
:1043D00004F58074FFF73CFF05F58070E1B2C4F38B
:1043E0000722C4F30743FFF733FF05F5007507F510
:1043F000007401364645E4DB0020BDE8F08108B5D5
:10440000072813D8DFE800F004070A0E1010101078
:10441000FFF708FF08E04FF4006304E04FF4007377
:104420000B8001E001230B60002008BD042008BDC3
:1044300007B5684604F094FE9DF805209DF8043009
:1044400002F00F0203F01F03520542EA03429DF8F7
:1044500002309DF8010003F01F0342EAC32300F07D
:104460003F0043EA40109DF80030C3F34403184373
:10447000BDF806305B0603F1084318430EBD00008B
:1044800010B5002302E0CC58C4500433D41A032CD6
:10449000F9D802F0030422F00302801800238A18DE
:1044A00002E0D15CC1540133A342FAD110BD002314
:1044B00001E0C15401339342FBD1704700221B4BF2
:1044C00070B5144653F8085C65B10668B5420AD168
:1044D00053F8046C8568AE4205D11E88C588AE428B
:1044E00001D105E0013201340C33032CEAD10DE097
:1044F00051B90F4B0C2202FB04346089B0F5807F68
:104500000CBF1020002070BD102070BDA1F102036F
:10451000594241EB0301002A0CBF0A4641F0010257
:10452000002A0CBF1220002070BD00BF24CA072043
:104530001CCA0720002302461846410841EAC01061
:10454000D15C013340180B2B00F0FF00F5D1704710
:104550002DE9F041056B04468D420E462BD00379C0
:10456000EBB100F13408414640782A460123FFF7B9
:104570008DF918BB226A636A2071D3189D4238BF37
:10458000E7780AD30BE0236A6078ED1841462A46A3
:104590000123FFF77BF9013FFFB2012FF3D886B16A
:1045A000607804F1340132460123FFF727F958B946
:1045B0002663BDE8F0810020BDE8F0810120BDE860
:1045C000F0813046BDE8F0810120BDE8F08170B592
:1045D00000210446FFF7BCFF05465DBB2378032B93
:1045E00020D16379F3B104F13406304629464FF403
:1045F00000722563FFF75BFF4AF65523A4F83232B9
:104600000D4B607863630D4B3146C4F81832636913
:10461000A269C4F81C322369C4F820320123FFF7D1
:1046200035F96571002160780A46FFF777F90030A7
:1046300018BF012070BD00BF5252614172724161CA
:10464000F8B503690D4601F10901002B40D043691B
:104650000C461F7B002607F0080C9A5D2146202A95
:1046600012D0052A08BFE522BCF1000F06D0A2F146
:104670004101C9B2192901D82032D2B2013604F859
:10468000012B082E2146E8D11A7A202A18D022467A
:104690002E2102F8011B082607F010079C5D114629
:1046A000202C0DD037B1A4F14101C9B2192901D88C
:1046B0002034E4B2013602F8014B0B2E1146EDD145
:1046C000DA7A2A72DA692A601A8BAA80DB8AEB808E
:1046D00000240C70AE690EB3EB69FBB10369B3B192
:1046E000028C4FF6FF739A4218BFC7690AD113E0D4
:1046F0000021FEF7AFFF60B1EB69013B9C420AD29B
:104700003055013437F8020B0028F1D104E01C4683
:1047100002E0044600E0002400233355F8BD10B544
:1047200004460A46407804F134010123FFF766F895
:10473000A0B9B4F832224AF655239A4210D1D4F8DF
:104740006A20084B22F07F429A420AD0D4F88600B1
:1047500020F07F40C01A18BF012010BD032010BDFB
:10476000022010BD464154002DE9F0410368164671
:104770001D78303D092D08D85A783A2A05D10233E0
:10478000012D036000F2F58000E00025864B03EB6D
:1047900085035C6A0C60002C00F0EE80E068FEF798
:1047A00097FF002800F0EB8023786BB16078FEF76C
:1047B000F1FFC20708D4002E00F0E48010F00400DE
:1047C00018BF0A20BDE8F0810023E8B223706070B2
:1047D000FEF7A8FFC30700F1D88016B1410700F12A
:1047E000D78000212046FFF79AFF01280BD194F8CB
:1047F000F631002B00F0D280D4F8FA612046314621
:10480000FFF78DFF00E00026032800F0C480002899
:1048100040F0C480B4F83F30B3F5007F40F0BE8074
:10482000B4F84A3003B9A36D94F8445023626A1E69
:10483000D2B2012AE57000F2B18094F84100A07074
:10484000002800F0AB80421E024240F0A780B4F87E
:1048500045100A07218140F0A180B4F8472002B931
:10486000626DB4F84270002F00F0988005FB03F8E9
:1048700007EB111CC4446245C0F09080CCEB0202EF
:10488000B2FBF0F2002A00F0898040F6F5700125B5
:10489000824205D94FF6F575AA428CBF0325022541
:1048A00002320CEB0600F719032DE261E062676249
:1048B00005D1002972D1216E9200A1620DE000297C
:1048C0006CD04744022DA76201D1520005E00321BC
:1048D000514302F0010202EB510202F5FE72033273
:1048E0000D20B3EB522F5CD34FF0FF3363610023F5
:1048F000032D236120D1B4F864206371B218A26142
:10490000607804F134010123FEF778FFA0B9B4F810
:1049100032224AF655239A420ED1626B234B9A42B9
:104920000AD1234BD4F818229A4201BFD4F820327E
:104930002361D4F81C3263611B4B25709A8D196872
:10494000013292B29A85E28000222271A14208BF10
:104950001A602263DA68A24202D1134A0021D160B0
:104960009B694FF00000A3421BD10F4B9861BDE83B
:10497000F0810B20BDE8F0810C20BDE8F0810F2014
:10498000BDE8F0813046BDE8F0810320BDE8F0814C
:104990000A20BDE8F0810120BDE8F0810D20BDE8CE
:1049A000F081BDE8F08100BF1CCA0720525261416E
:1049B0007272416110B5044680B1037873B1C38847
:1049C0008B420BD1C068FEF783FE48B16078FEF7DA
:1049D000E1FE10F0010018BF032010BD092010BD3A
:1049E0000F2010BDB1F10902A1F10B03DBB218BF1A
:1049F0000122012B94BF002302F0010323B10F29F0
:104A000002D0C068FEF779BE7047C3690239023B25
:104A100099423DBF8278C36A02FB01300020704793
:104A20000129F8B504460D4648D9C369994247D2D1
:104A30000378022B27D0032B30D0012B3BD101EB85
:104A40005106416A01EB5621FFF782FD002832D161
:104A5000616AF305013604EBD35301EB562120467E
:104A600093F83470FFF774FD28BBF60504EBD654B9
:104A700094F83400E90747EA002001D50009F8BDA1
:104A80000005000DF8BD416A01EB1521FFF760FD3F
:104A900088B92D0604EBD554A08EF8BD416A01EB10
:104AA000D511FFF755FD30B96D0604EBD554606B99
:104AB00020F07040F8BD4FF0FF30F8BD0120F8BD88
:104AC0000120F8BD70B504460D46E18081680129DA
:104AD00039D00368DA69914235D279B91A78032A54
:104AE00001D1996A51B90022E2601A89AA4282BFB3
:104AF0009B6A03EB1513236125D919E09E783601D3
:104B00000DE02068FFF78CFF0146013019D0012924
:104B100019D92368DB69994217D2AD1BADB2B542F2
:104B2000EFD2E1602068FFF770FF00EB1510206105
:104B3000236805F00F05343303EB4515656100204C
:104B400070BD012070BD022070BD022070BD012922
:104B5000F8B504460D4616465FD9C36999425ED240
:104B60000378022B3CD0032B45D00220012B51D1DE
:104B700001EB5107616A204601EB5721FFF7E8FC82
:104B8000002847D1FA05D20D15F001051CBFA11868
:104B900091F83410F3B21EBF01F00F0141EA031384
:104BA000DBB2A218616A82F8343001370123237125
:104BB00001EB57212046FFF7CBFC58BBFF05FF0D4B
:104BC00015B1C6F3071607E0E31993F83430C6F3BE
:104BD000032623F00F031E43E71987F8346019E01A
:104BE000416A01EB1521FFF7B3FC98B92D0604EBE0
:104BF000D555AE860EE0416A01EBD511FFF7A8FC52
:104C000040B96D0604EBD5556B6B03F070431E4342
:104C10006E63303501232371F8BD0220F8BD0220F8
:104C2000F8BDF8B504460E4631B9076977B1C369D6
:104C30009F4228BF01270AE0FFF7F2FE012846D96C
:104C4000E369984228BF374601D247E001273D4635
:104C5000E36901359D4202D3012F3AD9022520464E
:104C60002946FFF7DDFE68B1A0F1FF314B4243EB6F
:104C70000103012808BF43F00103002B2ED1BD42E0
:104C8000E6D128E0204629466FF07042FFF75FFF2B
:104C9000331C18BF0123002814BF002303F00103B5
:104CA00023B1204631462A46FFF751FF48B96369D0
:104CB00025615A1C11D0013B6361012363712846B1
:104CC000F8BD012814BF01204FF0FF30F8BD0120CE
:104CD000F8BD0020F8BD1846F8BD2846F8BD2DE9FE
:104CE000F041C68804460136B6B20F46002E68D0A1
:104CF0000369002B65D0320758D1C16801330361C5
:104D0000006819B90389B3425BD94FE08378013B4E
:104D100013EA16134AD1FFF783FE0128054656D938
:104D2000431C57D02068C3699D4239D3002F48D017
:104D3000E168FFF776FF0546002845D0012846D0F8
:104D4000013047D020680021FFF702FC0746002809
:104D500040D12068394634304FF40072FFF7A7FB8A
:104D6000D4F8008029464046FFF74FFEC8F83000CF
:104D70004FF001080DE083F8048020680021FFF760
:104D8000E7FB002829D1236801371A6BFFB20132F3
:104D90001A6323689A78BA42EDD81A6BD71B1F633F
:104DA000E56020682946FFF730FE20612368E68031
:104DB000343306F00F0603EB461666610020BDE8AB
:104DC000F0810420BDE8F0810720BDE8F0810220D9
:104DD000BDE8F0810120BDE8F0810120BDE8F0814F
:104DE0002DE9F74FFF26DFF83481054634464FF6AC
:104DF000FF7728682969FFF7ABFB8346002840F05E
:104E00008680D5F8149099F800A0BAF1000F7CD0F4
:104E1000BAF1E50F99F80B306DD003F03F03B3F111
:104E20000F0218BF012212EAD30264D10F2B4BD11B
:104E3000EB69002B60D01AF0400F06D0EA8899F891
:104E40000D600AF0BF0A2A8401E0A24553D199F807
:104E50000D20B2424FD199F800400D2204F0BF045A
:104E6000013C54434FF0010B002212F8081039F8AE
:104E70000100BBF1000F11D08DE80C00FEF708FC1B
:104E80007F2C8346019B36D833F81400FEF700FCD4
:104E90009DE80C0083452ED1013401E0B8422AD1AF
:104EA00001320D2AE1D199F80020C2F38012BBF142
:104EB000000F0CBF002202F00102002A2AD033F8B2
:104EC0001430002B26D016E024B94846FFF732FBF9
:104ED00086421CD04FF0FF33AA692B84D37A13F09B
:104EE000010302D007E00B2B11D019F80300D15CAD
:104EF00001338842F7D0FF2428460021FFF7EFFE58
:104F0000834600283FF475AF01E04FF0040B58468C
:104F1000BDE8FE8F0AF1FF34E4B2EDE7BC8001008A
:104F20002DE9F04F0B780646A3F12F00424242EBE9
:104F300000025C2B14BF134642F0010385B00F46FC
:104F400003B14F1C0024B4603B781F2B05D83046BA
:104F50002146FFF7B7FD746120E1D6F81C800025DB
:104F6000C146C246785D6B1C1F288CBF00240124FB
:104F70002F2808BF44F001040393BCB95C2819D062
:104F8000812B00F008810121FEF764FB002800F06E
:104F900002817F2806D8834B13F8012B12B182427D
:104FA000FAD1F8E02AF8020B039DDBE71F2894BF33
:104FB0000424002408EB45030CE033F8022DB2F181
:104FC000200118BF01212E2A0CBF002201F001028E
:104FD0001AB9013D002DF0D1DDE0002228F815209E
:104FE000B06920210B2208EB450BFFF760FA4FF068
:104FF000000A01E00AF1010A39F8023BA3F120019D
:105000004A4242EB01022E2B14BF134642F0010329
:10501000002BEFD1BAF1000F0AD044F0030407E0EF
:10502000013D05D14FF0000B0823D9465E4A04E04C
:105030003BF8023D2E2BF3D1F4E738F81A00002894
:1050400063D020280AF1010A0AD0BAEB050E18BF76
:105050004FF0010E2E2814BF00210EF0010111B1F6
:1050600044F00304E9E79B4534BF00210121AA4530
:1050700008BF41F00101A1B10B2B02D144F00304A0
:1050800043E0BEF1000F03D0AA4544F003043CD82E
:105090004FEA89095FFA89F9AA460B234FF0080BFA
:1050A000CBE77F280CD901920293FEF7D3FA019A3D
:1050B000029B10B1101810F8730C44F0020488B170
:1050C0003A4911F801EBBEF1000F02D08645F8D144
:1050D00008E0A0F1410189B2192998BF49F00209FD
:1050E0000DD903E044F003045F2008E0A0F1610162
:1050F00089B2192903D8203849F0010980B2B16971
:1051000001F80B000BF1010B97E7B2691178E52963
:1051100001D105211170082B04BF4FEA89095FFAFC
:1051200089F909F00C030C2B03D009F00302032AC0
:1051300001D144F00204A2070AD409F00309B9F12D
:10514000010F08BF44F01004042B08BF44F008040A
:10515000B3693046DC720021FFF7B4FC10B9304669
:10516000FFF73EFEB369DB7A38B1042816D113F09D
:10517000040F14BF0420052010E05B070ED47369F0
:10518000DA7AD10609D5039ABF189A8A5B8B43EA6B
:105190000243B360E1E6062000E0052005B0BDE86B
:1051A000F08F00BF76810100BC8001007F8101008B
:1051B000F8B5018CC5884FF6FF73994208BF2946A0
:1051C0000446FFF77FFC0146B8B9E52701262169AF
:1051D0002068FFF7BDF9014660B963691F70236855
:1051E0001E71E388AB4208D22046FFF778FD0146E6
:1051F0000028ECD0042908BF02210846F8BD2DE99B
:10520000F843FF26054634464FF00409DFF8F480E2
:105210004FF6FF7764E02868FFF79AF98146002887
:1052200064D168690378002B68D0A3F1E50CDCF148
:10523000000141EB0C012E2B08BF41F00101C27AA5
:10524000002946D102F03F02B2F10F0118BF01213F
:1052500011EAD2013DD10F2A32D1590605D5EA888B
:10526000467B03F0BF042A8401E0A34231D1437B93
:10527000B3422ED103780D2203F03F03013BD5F852
:105280001CE053434FF0010C002212F80810415A61
:10529000BCF1000F06D07F2B1BD82EF813108C46C4
:1052A000013301E0B94214D101320D2AEDD1027867
:1052B000520620D57F2B0CD800222EF813201AE09E
:1052C0001CB9FFF737F9864212D04FF0FF332B8419
:1052D0000EE0FF2428460021FFF701FD814628B992
:1052E0002969002997D1B9F1000F01D000232B6162
:1052F0004846BDE8F883013CE4B2EBE74FF004090F
:10530000F4E700BFBC80010001292DE9F341044608
:105310000F463ED9C36999423CBF0E464FF0010883
:1053200037D22EE020463146FFF77AFB05460028AB
:105330002CD001282DD0411C29D0204631460022F6
:10534000FFF705FC30BB63695A1C03D0013363616E
:1053500084F80580731CAB4212D039462046FFF713
:1053600054FB314600902046FFF74FFBA378042101
:10537000013B181801906A466078FEF7CFFA2F4675
:105380002E46E3699E42CDD3002003E002E00120D7
:1053900000E00220BDE8FC8173B51E4615460B22D5
:1053A0000446FFF76DF8052E09D9730843EAC6369F
:1053B0002B88F61835F8023FB6B2002BF5D107233B
:1053C00006F00F0101F13002392A88BF01F13702DE
:1053D0000DF80320013B3609F2D102A9CA187E213B
:1053E00002F8081C00E001369E4202D0A25D202A8D
:1053F000F9D12022072B9FBF02A9CA1812F8082C46
:105400000133A2550136072EF3D97CBD2DE9F043B7
:10541000856985B00DF10408C7690C220446294648
:105420004046FFF72DF89DF80F30DB0723D500230A
:10543000EB720126E361284641463A463346FFF7C0
:10544000ABFF20460021FFF73DFB814658B92046BF
:10545000FFF7C6FC814630B90136B6B2642EEAD1F8
:105460004FF00709BAE0B9F1040F40F0B7809DF89A
:105470000F30EB72E7619DF80F309E0704D40126D0
:105480000CE00136B6B200E0002637F81630002BEB
:10549000F7D119360D2396FBF3F6B6B2204600215C
:1054A000FFF710FB8146002840F09880074605462C
:1054B00020682169FFF74CF88146D8B963691B78E9
:1054C000A3F1E500424242EB0002002B14BF134659
:1054D00042F0010333B105B9E7880135ADB2B542F9
:1054E00001D107E01D4620460121FFF7F8FB814668
:1054F0000028DDD0D9F1010338BF0023012E94BF6D
:10550000002203F00102002A4ED020463946FFF760
:10551000D9FA8146002861D1A069FFF70BF8751E02
:10552000304F8046ADB24FF6FF7620682169FFF715
:105530000FF88146002851D163690F21EAB2D4F8EF
:105540001CC04FF00D0ED972511E0EFB01F183F8F5
:105550000D80187358838646B04218BF3CF811007E
:105560001EF807900EF1010E18BF013123F8090053
:10557000002808BF3046BEF10D0FEDD1B04202D079
:105580003CF8111009B942F040021A702368012258
:105590001A7120460021FFF7A2FB8146F0B9013DB8
:1055A000ADB2002DC1D100E0C3B120682169FEF782
:1055B000CFFF814690B96569494628462022FEF70B
:1055C00076FF0B222846A169FEF75AFFA369012244
:1055D000DB7A03F018032B7323681A71484605B071
:1055E000BDE8F083BC800100012870B504460D467B
:1055F0002AD8184B03EB8002566AB6B11A68B24239
:1056000001D100221A60DA68B24202D1114A0021A7
:10561000D1609B69B34202D10E4B00229A61F068BF
:10562000FEF754F890B1002333703DB129460023B2
:1056300001F80C3B2046FEF73FF848B1054B00202F
:1056400003EB8404656270BD0B2070BD022070BD49
:10565000022070BD1CCA07202DE9F0430023D1B001
:1056600002F01F0403600191054604F01E0201A828
:1056700044A9FFF779F84DAB4A9303AB06464B9329
:1056800020B944A80199FFF74BFC0646499F56B93B
:10569000062647B114F0FE0F0CBF0021012144A8DB
:1056A000FEF70CFF064614F01C0F43D0AEB1042EDB
:1056B0000DD15E4B1A68002A00F08D80DA68002A4E
:1056C00000F089809B69002B00F085801226499F9D
:1056D000002E78D144F0080406E00826620772D450
:1056E000FB7A13F0110F7DD123072CD5FEF7A0FE16
:1056F000B7F814807A8B0023C7F80E004498FB7229
:10570000FB617B83BB82012352EA084803711AD0F4
:105710004146D0F83090FFF7F7FD0646002852D1F9
:10572000449808F1FF3303614946FEF711FF06462E
:1057300048B148E0002E46D1FB7ADE0650D4A007DF
:1057400001D5D9074ED42207449A469E136BBDF863
:105750001601374948BF44F02004EB612F62002353
:1057600051F808EC964507D151F804ECB64503D141
:10577000B1F800E086450BD001330C31032BEFD19B
:1057800032E0CB68002B34D08B69BBB9022331E007
:1057900026494FF00C0000FB031114F0FE0F49895D
:1057A00003D059B94FF4807101E0013189B21F482B
:1057B0000C2606FB03000133418100E000236B62ED
:1057C000002B23D1022644983146FFF70BF93046CF
:1057D00051B0BDE8F08344A8FFF718FE064676E70F
:1057E0000426F0E70726EEE710490B68002BC8D126
:1057F00000E001230C265E4388198A5146994160D6
:10580000BDF81611018100214181C1E7AC71B98A4F
:105810007B8B002643EA01432B61FB692A60D28817
:10582000EB60AE60AE61AA80CDE700BF1CCA072066
:1058300024CA07202DE9F74F9946002304468846DD
:10584000C9F80030818800681746FFF7B3F80546AD
:1058500010B1206829469EE0A3791A0629D4D807FA
:1058600005D420680721FFF7BDF8072595E0E66815
:10587000A368F61AB74238BF3E4687E0A368DA0548
:1058800059D1206890F802B00BF1FF3B0BEA532B83
:105890005FFA8BFBBBF1000F14D10BB9206902E05A
:1058A0006169FFF7BDF8012809D8A37963F07F0388
:1058B000A37120680221FFF795F802256DE0411CD5
:1058C0003FD06061D4F800A061695046FFF79DF8B1
:1058D00028B9A379504663F07F03A371EAE700EB90
:1058E0000B0C770A08BFC4F818C024D09AF802300D
:1058F00007EB0B029A4288BFCBEB03079AF8010033
:105900006246FBB24146CDF804C0FDF777FFDDF8F3
:1059100004C0B0B921680B795BB10B6BCCEB030C05
:10592000BC4506D208EB4C2034314FF40072FEF730
:10593000A7FD7F0220E02068A169A768FEF708FEA6
:1059400048B1A379206863F07F03A3710121FFF7B9
:1059500049F8012521E0FF05A168FF0D2368C7F57F
:105960000077C905BE4238BF374603EBD151343109
:1059700040463A46FEF784FDA368B844DB19A360AD
:10598000D9F80030F61BDB19C9F80030002E7FF47F
:1059900075AF20683146FFF725F82846BDE8FE8F31
:1059A0002DE9F74F01931646019A002304468846D5
:1059B000136081880068FEF7FDFF054610B120687E
:1059C0002946C3E0A3791A0630D49B0705D4206882
:1059D0000721FFF707F80725BAE0E368DE4228BF92
:1059E0000026A5E0A368DA0575D1206890F802B01A
:1059F0000BF1FF3B0BEA532B5FFA8BFBBBF1000F64
:105A00001DD133B9216959B9FFF70BF9014620615E
:105A100003E06169FFF705F90146002900F08B807A
:105A2000012909D1A37963F07F03A37120680221C2
:105A3000FEF7D8FF02258BE0481C52D06161206838
:105A4000A369026B9A4204D10021FEF781FD002870
:105A500047D1D4F800A061695046FEF7D6FF28B9B7
:105A6000A379504663F07F03A371E0E7770A00EB68
:105A70000B0922D09AF8023007EB0B029A4288BF3A
:105A8000CBEB03079AF80100FBB241464A46FDF70B
:105A9000FDFE824628BB2068016BC9EB0109B945B0
:105AA00009D2343008EB49214FF40072FEF7E8FCCC
:105AB000236883F804A07F0231E0A268E3689A4279
:105AC00007D350463946FEF743FD50B92368C3F863
:105AD0003090C4F818902068A169A768FEF738FDD7
:105AE00048B1A379206863F07F03A3710121FEF719
:105AF00079FF01252CE0A068FF052368FF0DC7F59D
:105B00000077C00503EBD050BE4238BF37463A4657
:105B100034304146FEF7B4FC236801221A71A368B1
:105B2000019ADB19A3601368B844DB191360F61BF4
:105B3000002E7FF457AFA368E2682068934288BFC5
:105B4000E360A379002143F02003A371FEF74AFF2D
:105B50002846BDE8FE8F38B5818804460068FEF708
:105B600029FF054610BBA37999061FD52068E16976
:105B7000FEF7EEFC0546C8B9256AEB7A43F0200330
:105B8000EB72E368EB6123696B831B0CAB82FEF75E
:105B90004FFCC5F81600A379012223F02003A3715E
:105BA00023681A712068FEF712FD05462068294611
:105BB000FEF718FF284638BD38B50546FFF7CBFF7E
:105BC000044620BBA9882868FEF7F4FE0446F0B915
:105BD0006A6A013A022A13D80E480C2101FB02031B
:105BE0005B89B3F5807F08BF234602D00BB1013B30
:105BF0009BB24A43801843811BB906498B5000E091
:105C0000022428680021FEF7EDFE04B92C6020462E
:105C100038BD00BF1CCA0720F8B504460D46818870
:105C20000068FEF7C7FE064610B12068314688E0DE
:105C3000A27911064ED4E3689D4203D912F0020FF7
:105C400008BF1D460022A368A260002D68D020680E
:105C500087787F026BB1013B691EB1FBF7F1B3FBA3
:105C6000F7F2914205D37A421340A360ED1A6169BD
:105C70000BE0216941B9FEF7D4FF0128014625D088
:105C8000421C18BF206111D06161002945D028E075
:105C9000A37920689B0704D5FEF7C3FF014618B916
:105CA00022E0FEF7BDFE0146481C09D1A379206819
:105CB00063F07F03A3710121FEF794FE012642E009
:105CC000012903D92368DB69994205D3A37963F0DD
:105CD0007F03A371206818E0A3686161DB19A360EA
:105CE000ED1BBD42D4D800E03D46A3685B19A3601C
:105CF000EB05DA0D9BB127683846FEF786FE48B9FA
:105D0000A379384663F07F03A3710221FEF76AFE90
:105D1000022618E000EB552502E00D4600E015468E
:105D2000A368DA0503D0A269954218BFA561E268AD
:105D30002068934281BFE360A37943F02003A371FD
:105D40000021FEF74FFE3046F8BD30B50446C7B01F
:105D5000019101A821460022FEF706FD0546F8B98B
:105D600043ABA36102ABE36120460199FFF7D8F88A
:105D7000054690B9636943B1DA7A0525D0060FD597
:105D80009A8A5B8B43EA0243A36023682046DB8840
:105D90000021A380FEF796FE0546042D08BF0525C9
:105DA00020682946FEF71EFE284647B030BD70B574
:105DB0000446C4B00E4681880068FEF7FBFD054628
:105DC000F8B926B920462946FEF77CFE18E041AB1B
:105DD000A36100ABE3612046FFF711FA042808BF76
:105DE000256100D060B920463146FEF729FC00212C
:105DF0002046FEF774FF042802D10023236100E04F
:105E0000054620682946FEF7EDFD284644B070BDE2
:105E100030B5D1B001900C4601A844A90022FEF78C
:105E2000A3FC054688B94DAB4A9344A803AB01993E
:105E30004B93FFF775F8054638B9499B23B144A841
:105E40002146FEF7FDFB00E0062544982946FEF7B3
:105E5000C9FD284651B030BD2DE9F34702AB43F8E8
:105E6000040D0D461446114618460022FEF77CFC30
:105E70000646002854D12368D3F81C805A69A8F13B
:105E800002018A4298BF2A604AD993F80090B9F17A
:105E9000010F13D14FF00208074620684146FEF774
:105EA000BFFD431C2FD001282FD000B90137236834
:105EB00008F10108DB699845EFD329E0D3F824A065
:105EC00002460346074652B920685146FEF740FB9A
:105ED000E8B923680AF1010A34334FF40072B9F1CA
:105EE000020F05D1198801B901370233023A06E0E1
:105EF000196821F0704101B901370433043AB8F14F
:105F00000108E0D104E0012602E0022600E0064696
:105F10002368B9F1030F5F6101D101225A712F602B
:105F200020683146FEF75EFD3046BDE8FC8770B55F
:105F3000818804460068FEF73DFD064600282ED104
:105F4000A379180603D499072FD4072627E0022641
:105F500025E043F02003E560A37120682DB9216995
:105F6000FFF7D2F92561064614E06169FEF758FD96
:105F7000421C05461ED0012820D11DE061696FF04A
:105F80007042FEF7E4FD064628B920682946FFF76F
:105F9000BBF906461EB1A37963F07F03A3712068A5
:105FA0003146FEF71FFD304670BDA568E268AA4283
:105FB000CFD8F4E70126EEE70226ECE72068C369B4
:105FC0009D42ECD2DAE730B5D9B0019043A901A8DF
:105FD0000122FEF7C9FB0546002846D155AB49937F
:105FE00043A802AB01994A93FEF79AFF05460028A1
:105FF0003BD143A80221FEF761FA0546002834D1BF
:10600000489B06252BB1DA7A12F0010F0CBF002550
:1060100007259C8A5A8B45BBDB7A42EA0444DD069D
:106020002AD50225012C20D94CA843A92422FEF709
:1060300027FA4CA802214E94FEF744FD0546A0B96C
:106040004CA8FFF7DCF8054610B1042814D00CE08A
:1060500007250AE02CB143982146FFF755F905467C
:1060600018B94398FEF7B3FA054643982946FEF758
:10607000B9FC284659B030BD43A8FFF799F805464A
:106080000028E7D0F1E72DE9F04FD1B00190FEF7FD
:10609000CFF944A98346012201A8FEF765FB81469A
:1060A000002840F08D804DAB4A9344A803AB019982
:1060B0004B93FEF735FF814600287FD004287FD11F
:1060C00044980021FEF7ADFD4FF007090546002872
:1060D0005FD0012808BF4FF002095AD0431C08BF07
:1060E0004FF0010955D073E0449C29462046FEF745
:1060F0008CFC04F1340641464FF4007207463046EA
:10610000FEF7D5F920210B223046FEF7D0F91023F7
:1061100025FA03FA4FF02E091FFA85F8202284F899
:106120003F30314684F83490C4F84AB0A4F84E8029
:10613000A4F848A004F15400FEF7A2F9449A84F8A8
:1061400055901178469B032903D1916A8B4208BF71
:106150000023A4F86E301B0CA4F86830947811E08A
:1061600044980123002107630371FEF7F1F901460A
:10617000814670B930464FF40072FEF798F9013C41
:106180000137E4B2002CEBD144A8FFF73FF9814678
:1061900020B144982946FFF7B7F811E0499B102237
:1061A0004498DA72C3F816B0A3F81A80A3F814A0C2
:1061B00001230371FEF70BFA814601E04FF0080955
:1061C00044984946FEF70EFC484651B0BDE8F08FB2
:1061D00044980021FEF7BCF980468146002883D010
:1061E000D7E770B5D0B001900C46154601A844A978
:1061F0000122FEF7B9FA0646D0B94DAB4A9344A83E
:1062000003AB01994B93FEF78BFE064680B9499B81
:1062100006266BB1DA7A05F0270522EA0502254049
:1062200015434498DD7201230371FEF7D0F9064649
:1062300044983146FEF7D6FB304650B070BD30B5BD
:10624000D1B001900C4601A844A90122FEF78CFAB6
:106250000546B0B94DAB4A9344A803AB01994B93A3
:10626000FEF75EFE054660B9499B06254BB1E28804
:106270004498DA82A4881C8301230371FEF7A7F9EE
:10628000054644982946FEF7ADFB284651B030BD7F
:1062900030B5DFB001900C4601A843A90122FEF7FA
:1062A00063FA0546002876D1439B43A84C935BAB29
:1062B0004993019902AB4A93FEF732FE0546002846
:1062C00069D143A80221FEF7F9F80546002862D1FA
:1062D0004899042500295ED00B3155A81522FEF7F8
:1062E000CFF84CA843A92422FEF7CAF84CA82146AF
:1062F000FEF716FE054600284CD004284BD14CA8CA
:10630000FFF784F80546002845D1519C132204F17B
:106310000D000DF5AB71FEF7B3F89DF85431012275
:1063200043F02003E372439B1A714E9B459A9A42B5
:1063300026D0E37ADA0623D5638B4C9DA18A2846C2
:1063400043EA0141FEF761FB014600282AD02846B6
:10635000FEF7FEF84C9B0546E8B993F855202E2A27
:106360000ED11A78032A03D19A6A4E99914200D02D
:106370004E9DA3F86E5001222D0CA3F868501A719F
:1063800043A8FEF715FF054628B94398FEF71FF905
:10639000054600E0082543982946FEF723FB2846DA
:1063A0005FB030BD0225F6E72DE9F04F05468BB012
:1063B0000B20012D0191164600F21782A94B0C20EB
:1063C00003EB85035C6A002C00F00F82002323702E
:1063D0002846FDF7A7F9C20700F10082430700F144
:1063E000FF812846012109AAFDF798FA002840F00C
:1063F000FB81099B7F2B40F2F7810199721E0029D6
:106400000CBF4FF03F0B4FF0000BCBEB03033242BE
:10641000099300D186B94FF4FA60B3FBF0F09249CA
:10642000002200E0013231F8026FB042FAD38F4906
:1064300001EB4202B2F8A4605FEA562808BF4FF0B1
:10644000010804D0B8F1800F28BF4FF08008B3FBDB
:10645000F8FA40F6F572924505D902F57042924578
:1064600000F2C681D2E1032202FB0AFA0AF1010A14
:106470004FEA5A0A924401270AF5FE7A0AF1030A02
:1064800020224FEA5A2A04924FF00109049A09EB9C
:106490000B0102EB0A06761806EB08029342039101
:1064A000C0F0A0812846032108AAFDF737FA20B9D9
:1064B000089B13B1B3F5004F01D901230893089B42
:1064C00004995A1E92195B421340032FC6EB030630
:1064D00003BF039BB1449B19B2440896099E08BFB1
:1064E0000393C9EB0603CAEB03035B1AB3FBF8F390
:1064F0000593A7F1020CDCF10003059943EB0C03B3
:1065000040F6F57291428CBF002303F00103002B8B
:1065100040F06881A7F10300424242EB00024FF6CF
:10652000F573029299428CBF002202F00102002A08
:1065300040F05881019B002B44D104F134030199B0
:1065400018464FF400720093FDF7B1FF484A5E44CD
:10655000C4F8F221474A009B964284BF4FF0FF31B6
:10656000A4F8F8110AD843F6C162B6FBF2F684F833
:10657000F961B60846F03F0684F8F861FE2284F817
:10658000F7210C22032F05D0099AB2F5803F2CBFCA
:106590000622042284F8F6213F22C4F8FA21099A3F
:1065A0001946C4F8FE214AF65522A4F8322228469C
:1065B00000220123FDF76AF9002840F01581F82335
:1065C000019301E0F021019104F1340600213046ED
:1065D0004FF40072FDF76BFF0B2230462649FDF7A2
:1065E0004FFF0299012384F8443000290CBF4FF477
:1065F00000730023A4F84530099B4FF40072B3F5F3
:10660000803FA4F83F20019A34BFA4F84730636567
:106610003F23FF2184F8492084F84180A4F8429068
:10662000A4F84C30A4F84E10C4F850B0FDF700FFA9
:10663000029A089022B3022323660123A4F864304F
:106640008023062184F874302923C4F87700A4F845
:106650006610C4F858A084F8763004F17B0007492E
:106660001BE000BF1CCA072048810100BC8001005C
:1066700080010100FF03FB0086810100928101007F
:10668000802384F8583064492923C4F85B00A4F8B7
:106690004AA084F85A3004F15F001322FDF7F0FE9F
:1066A0004AF65522A4F83222284631465A4601239A
:1066B000FDF7ECF8002840F09780029B33B10BF116
:1066C0000602284631460123FDF7E0F80021304656
:1066D0004FF40072FDF7EBFE032F09D04F4B012F53
:1066E000019918BF6FF0FF030B43089363630AE03F
:1066F000019A62F0FF03089363634FF0FF33A363D3
:106700006FF07043E36331462846039A0123FDF797
:10671000BDF80146002867D1039B30464FF4007254
:1067200003F10109FDF7C3FE01230BE028463146C2
:106730004A460123FDF7AAF8002855D1089B09F124
:10674000010901330893089B5345EFD3049F029935
:10675000002918BF4746284631464A460123FDF71F
:1067600095F8002840D1013F09F10109F3D1059ABC
:10677000284608FB0298042108F1FF3306AA079374
:10678000CDF81890FDF7CAF8029BF3B1244B059A97
:106790006363244B4AF65521C4F81832531EC4F8DB
:1067A0001C324FF0FF33A4F83212C4F820320BF140
:1067B0000102314601232846FDF768F80BF1070274
:1067C000284631460123FDF761F8002128460A4694
:1067D000FDF7A4F8003018BF012006E0032004E014
:1067E0000A2002E00E2000E001200BB0BDE8F08F8F
:1067F0000AF1820A4FEA8A0A0AF1FF3A00214FEAB7
:106800005A2A032704914FF020093FE60AF1020AB1
:106810004FEA4A0A02272FE6A681010000FFFF0087
:106820005252614172724161024B01201A68013279
:106830001A6070474CCA072008B5044B1A68013229
:106840001A6007F09BFF012008BD00BF4CCA07205B
:1068500010B50C2007F08AFF044618B100210C2265
:1068600008F01CFB204610BDF8B505460E46B0B139
:1068700004680AE026B1002120680A460B46B047AA
:106880002046676807F07AFF3C46002CF2D1284684
:106890002C606C60AC6007F071FF0120F8BDF8BDA2
:1068A00000B18068704738B504460D4690B10820A5
:1068B00007F05CFF70B100234360236805600BB9EB
:1068C000206001E063685860A36860600133A360E2
:1068D000012038BD38BD38B504460D4678B10820D2
:1068E00007F044FF58B12368056043606368206087
:1068F00003B96060A36801200133A36038BD38BDCF
:1069000030B5002825D0141C18BF012400290CBF65
:10691000002304F001032BB11068D0B14368136069
:10692000006830BD036801E05B6801390D1C18BFC9
:106930000125002B0CBF002005F001000028F3D139
:10694000002B08BF45F001051DB90CB15968116055
:10695000186830BD2DE9F0411F46D0F1010338BF62
:106960000023002908BF43F001030D461646DDF859
:10697000188083B9046809E0206831463A464346E6
:10698000A84710B92068BDE8F0816468002CF3D1F5
:106990002046BDE8F0810020BDE8F08138B503460F
:1069A000E8B104680022204616E00568A94211D12A
:1069B000844204BF416819605968814208BF5A6027
:1069C0000AB1416851609A68013A9A6007F0D6FEB0
:1069D000012038BD024640680028E6D138BD38BDE8
:1069E0002DE9F0411F46031C18BF012300290CBFED
:1069F000002303F001030D461646DDF818806BB145
:106A0000046806E0206831463A464346A84730B15C
:106A10006468002CF6D10120BDE8F0810120BDE8BA
:106A2000F08173B5924808F0EFFAFFF711FF0446C2
:106A300028B9904840F20F118F4A904B06E0036846
:106A400033B18C488C4A8E4B40F2111107F004FE92
:106A500043682BB187484FF48971874A894BF5E722
:106A60000121FFF720FF2368626893421CBF814821
:106A70004FF48C7140F0B0801A68012A03D07D4831
:106A800040F21911ADE15B687A484FF48D71002B2B
:106A900040F0678102212046FFF705FF23681A684E
:106AA000012A1CBF73484FF4907140F09A815B68D3
:106AB0001BB9704840F221119BE11A68022A1CBFE1
:106AC0006C484FF4917140F09D815B681BB169483F
:106AD00040F2231166E103212046FFF7E4FE23681C
